:100000000C9434000C9453000C9451000C94510047
:100010000C9451000C9451000C9451000C9451001C
:100020000C9451000C9451000C9451000C946B00F2
:100030000C9451000C9451000C9451000C945100FC
:100040000C9451000C9451000C9451000C945100EC
:100050000C9451000C9451000C9451000C945100DC
:100060000C9451000C94510011241FBECFEFD8E026
:10007000DEBFCDBF11E0A0E0B1E0E2E6F4E002C0F7
:1000800005900D92A230B107D9F721E0A2E0B1E0CE
:1000900001C01D92A830B207E1F70E9416010C942E
:1000A0002F020C9400001F920F9200905F000F929D
:1000B00011248F93CF93DF93CDB7DEB781E0809388
:1000C00005010000DF91CF918F910F9000925F00AA
:1000D0000F901F9018951F920F9200905F000F9243
:1000E00011248F93CF93DF93CDB7DEB780910301B7
:1000F0008F5F80930301809104018F5F80930401DF
:100100000000DF91CF918F910F9000925F000F90D0
:100110001F901895CF93DF93CDB7DEB78CE790E0B3
:1001200020E4FC0120838AE790E027E8FC0120839B
:100130008EE790E021E0FC0120830000DF91CF9169
:100140000895CF93DF931F92CDB7DEB789838CE7F5
:1001500090E02CE730E0F9012081322F307F2981B7
:10016000232BFC0120838AE790E02AE730E0F901A5
:1001700020812064FC01208300008AE790E0FC01DC
:100180008081882F90E080749927892BB1F788E7C8
:1001900090E0FC01808191810F90DF91CF910895D3
:1001A000CF93DF93CDB7DEB727970FB6F894DEBFB6
:1001B0000FBECDBF19821A821B821C821D8215C000
:1001C00080E00E94A100CC01A0E0B0E029813A814A
:1001D0004B815C81820F931FA41FB51F89839A8373
:1001E000AB83BC838D818F5F8D838D81803140F3A4
:1001F00089819A81AB81BC81689413F8B695A795E3
:10020000979587951694D1F79F838E8321E08E81F1
:100210009F81CD9708F020E0822F27960FB6F894A3
:10022000DEBF0FBECDBFDF91CF910895CF93DF9397
:10023000CDB7DEB784E290E024E230E0F90120811E
:100240002D68FC0120838AE290E02AE230E0F90187
:1002500020812064FC0120838AE290E02AE230E0E1
:10026000F90120812B7FFC0120838BE290E02BE2BF
:1002700030E0F90120812460FC0120830E948A0083
:1002800084E490E023E8FC01208385E490E023E00F
:10029000FC01208387E490E0FC01108281E890E07B
:1002A00028E0FC01208388E890E028E03DE3FC01A1
:1002B0003183208381E890E021E830E0F90120815A
:1002C0002560FC0120838FE690E022E0FC01208382
:1002D00089E690E022E0FC0120838DE390E021E0BC
:1002E000FC012083789480910201882F90E0813076
:1002F000910531F18230910509F44CC0892B09F048
:10030000ADC085E290E021E0FC01208387E490E02D
:10031000FC01108280910501882309F49AC0109293
:1003200005010E94D000882309F493C010920601B1
:10033000109204011092030181E08093020189C0B0
:1003400085E290E0FC01108280910401882309F489
:1003500082C01092040180910601803F60F4809178
:100360000601865F8093060187E490E020910601F4
:10037000FC01208370C087E490E0FC0110821092A1
:1003800003011092070181E08093000182E08093D5
:10039000020161C085E290E020E8FC0120838091A9
:1003A0000301863098F485E290E025E230E0F9011F
:1003B00020812860FC01208385E290E025E230E086
:1003C000F90120812B7FFC0120833AC08091070135
:1003D0008F5F8093070180910701843140F0109274
:1003E00007019091000181E08927809300018091AD
:1003F0000001882399F085E290E025E230E0F901E0
:1004000020812860FC01208385E290E025E230E035
:10041000F90120812460FC01208312C085E290E074
:1004200025E230E0F9012081277FFC01208385E26D
:1004300090E025E230E0F90120812B7FFC01208350
:1004400080910301883048F010920301109202015C
:1004500004C0000048CF000046CF000044CFF8940D
:02046000FFCFCC
:02046200010097
:00000001FF
